{
  "_format": "hh-sol-artifact-1",
  "contractName": "Wallet",
  "sourceName": "contracts/Wallet.sol",
  "abi": [
    {
      "inputs": [
        {
          "internalType": "address",
          "name": "_token",
          "type": "address"
        }
      ],
      "stateMutability": "nonpayable",
      "type": "constructor"
    },
    {
      "inputs": [],
      "name": "ReentrancyGuardReentrantCall",
      "type": "error"
    },
    {
      "inputs": [
        {
          "internalType": "uint256",
          "name": "amount",
          "type": "uint256"
        }
      ],
      "name": "deposit",
      "outputs": [],
      "stateMutability": "payable",
      "type": "function"
    },
    {
      "inputs": [],
      "name": "getUserBalance",
      "outputs": [
        {
          "internalType": "uint256",
          "name": "",
          "type": "uint256"
        }
      ],
      "stateMutability": "view",
      "type": "function"
    },
    {
      "inputs": [],
      "name": "owner",
      "outputs": [
        {
          "internalType": "address",
          "name": "",
          "type": "address"
        }
      ],
      "stateMutability": "view",
      "type": "function"
    },
    {
      "inputs": [],
      "name": "token",
      "outputs": [
        {
          "internalType": "contract IERC20",
          "name": "",
          "type": "address"
        }
      ],
      "stateMutability": "view",
      "type": "function"
    },
    {
      "inputs": [
        {
          "internalType": "uint256",
          "name": "amount",
          "type": "uint256"
        }
      ],
      "name": "withdraw",
      "outputs": [],
      "stateMutability": "nonpayable",
      "type": "function"
    }
  ],
  "bytecode": "0x608060405234801561001057600080fd5b506040516105ca3803806105ca83398101604081905261002f91610067565b600160008190558054336001600160a01b031991821617909155600380549091166001600160a01b0392909216919091179055610097565b60006020828403121561007957600080fd5b81516001600160a01b038116811461009057600080fd5b9392505050565b610524806100a66000396000f3fe60806040526004361061005a5760003560e01c8063b6b55f2511610043578063b6b55f25146100be578063b7013dc1146100d1578063fc0c546a146100fc57600080fd5b80632e1a7d4d1461005f5780638da5cb5b14610081575b600080fd5b34801561006b57600080fd5b5061007f61007a36600461046c565b61011c565b005b34801561008d57600080fd5b506001546100a1906001600160a01b031681565b6040516001600160a01b0390911681526020015b60405180910390f35b61007f6100cc36600461046c565b6102d2565b3480156100dd57600080fd5b50336000908152600260205260409020546040519081526020016100b5565b34801561010857600080fd5b506003546100a1906001600160a01b031681565b610124610429565b600081116101795760405162461bcd60e51b815260206004820152601d60248201527f416d6f756e74206d7573742062652067726561746572207468616e203000000060448201526064015b60405180910390fd5b336000908152600260205260409020548111156101d85760405162461bcd60e51b815260206004820152601460248201527f496e73756666696369656e742062616c616e63650000000000000000000000006044820152606401610170565b336000818152600260205260408082209190915560035490517fa9059cbb0000000000000000000000000000000000000000000000000000000081526004810192909252602482018390526001600160a01b03169063a9059cbb906044016020604051808303816000875af1158015610255573d6000803e3d6000fd5b505050506040513d601f19601f820116820180604052508101906102799190610485565b6102c55760405162461bcd60e51b815260206004820152601560248201527f546f6b656e207472616e73666572206661696c656400000000000000000000006044820152606401610170565b6102cf6001600055565b50565b600081116103225760405162461bcd60e51b815260206004820152601d60248201527f416d6f756e74206d7573742062652067726561746572207468616e20300000006044820152606401610170565b6003546040517f23b872dd000000000000000000000000000000000000000000000000000000008152336004820152306024820152604481018390526001600160a01b03909116906323b872dd906064016020604051808303816000875af1158015610392573d6000803e3d6000fd5b505050506040513d601f19601f820116820180604052508101906103b69190610485565b6104025760405162461bcd60e51b815260206004820152601560248201527f546f6b656e207472616e73666572206661696c656400000000000000000000006044820152606401610170565b33600090815260026020526040812080548392906104219084906104ae565b909155505050565b600260005403610465576040517f3ee5aeb500000000000000000000000000000000000000000000000000000000815260040160405180910390fd5b6002600055565b60006020828403121561047e57600080fd5b5035919050565b60006020828403121561049757600080fd5b815180151581146104a757600080fd5b9392505050565b808201808211156104e8577f4e487b7100000000000000000000000000000000000000000000000000000000600052601160045260246000fd5b9291505056fea26469706673582212205567ac8315a42f36d10c01730b32fb158eadec2926307c67c04a735539589b7764736f6c63430008180033",
  "linkReferences": {},
  "deployedLinkReferences": {}
}