{
  "_format": "hh-sol-artifact-1",
  "contractName": "Wallet",
  "sourceName": "contracts/Wallet.sol",
  "abi": [
    {
      "inputs": [
        {
          "internalType": "address",
          "name": "_token",
          "type": "address"
        }
      ],
      "stateMutability": "nonpayable",
      "type": "constructor"
    },
    {
      "inputs": [],
      "name": "ReentrancyGuardReentrantCall",
      "type": "error"
    },
    {
      "inputs": [
        {
          "internalType": "uint256",
          "name": "amount",
          "type": "uint256"
        }
      ],
      "name": "deposit",
      "outputs": [],
      "stateMutability": "payable",
      "type": "function"
    },
    {
      "inputs": [],
      "name": "getUserBalance",
      "outputs": [
        {
          "internalType": "uint256",
          "name": "",
          "type": "uint256"
        }
      ],
      "stateMutability": "view",
      "type": "function"
    },
    {
      "inputs": [],
      "name": "owner",
      "outputs": [
        {
          "internalType": "address",
          "name": "",
          "type": "address"
        }
      ],
      "stateMutability": "view",
      "type": "function"
    },
    {
      "inputs": [],
      "name": "token",
      "outputs": [
        {
          "internalType": "contract IERC20",
          "name": "",
          "type": "address"
        }
      ],
      "stateMutability": "view",
      "type": "function"
    },
    {
      "inputs": [
        {
          "internalType": "uint256",
          "name": "amount",
          "type": "uint256"
        }
      ],
      "name": "withdraw",
      "outputs": [],
      "stateMutability": "nonpayable",
      "type": "function"
    }
  ],
  "bytecode": "0x608060405234801561001057600080fd5b50604051610aed380380610aed83398181016040528101906100329190610125565b600160008190555033600160006101000a81548173ffffffffffffffffffffffffffffffffffffffff021916908373ffffffffffffffffffffffffffffffffffffffff16021790555080600360006101000a81548173ffffffffffffffffffffffffffffffffffffffff021916908373ffffffffffffffffffffffffffffffffffffffff16021790555050610152565b600080fd5b600073ffffffffffffffffffffffffffffffffffffffff82169050919050565b60006100f2826100c7565b9050919050565b610102816100e7565b811461010d57600080fd5b50565b60008151905061011f816100f9565b92915050565b60006020828403121561013b5761013a6100c2565b5b600061014984828501610110565b91505092915050565b61098c806101616000396000f3fe60806040526004361061004a5760003560e01c80632e1a7d4d1461004f5780638da5cb5b14610078578063b6b55f25146100a3578063b7013dc1146100bf578063fc0c546a146100ea575b600080fd5b34801561005b57600080fd5b50610076600480360381019061007191906105ac565b610115565b005b34801561008457600080fd5b5061008d610311565b60405161009a919061061a565b60405180910390f35b6100bd60048036038101906100b891906105ac565b610337565b005b3480156100cb57600080fd5b506100d46104b4565b6040516100e19190610644565b60405180910390f35b3480156100f657600080fd5b506100ff6104fb565b60405161010c91906106be565b60405180910390f35b61011d610521565b60008111610160576040517f08c379a000000000000000000000000000000000000000000000000000000000815260040161015790610736565b60405180910390fd5b80600260003373ffffffffffffffffffffffffffffffffffffffff1673ffffffffffffffffffffffffffffffffffffffff1681526020019081526020016000205410156101e2576040517f08c379a00000000000000000000000000000000000000000000000000000000081526004016101d9906107a2565b60405180910390fd5b6000600260003373ffffffffffffffffffffffffffffffffffffffff1673ffffffffffffffffffffffffffffffffffffffff16815260200190815260200160002081905550600360009054906101000a900473ffffffffffffffffffffffffffffffffffffffff1673ffffffffffffffffffffffffffffffffffffffff1663a9059cbb33836040518363ffffffff1660e01b81526004016102849291906107c2565b6020604051808303816000875af11580156102a3573d6000803e3d6000fd5b505050506040513d601f19601f820116820180604052508101906102c79190610823565b610306576040517f08c379a00000000000000000000000000000000000000000000000000000000081526004016102fd9061089c565b60405180910390fd5b61030e610567565b50565b600160009054906101000a900473ffffffffffffffffffffffffffffffffffffffff1681565b6000811161037a576040517f08c379a000000000000000000000000000000000000000000000000000000000815260040161037190610736565b60405180910390fd5b600360009054906101000a900473ffffffffffffffffffffffffffffffffffffffff1673ffffffffffffffffffffffffffffffffffffffff166323b872dd3330846040518463ffffffff1660e01b81526004016103d9939291906108bc565b6020604051808303816000875af11580156103f8573d6000803e3d6000fd5b505050506040513d601f19601f8201168201806040525081019061041c9190610823565b61045b576040517f08c379a00000000000000000000000000000000000000000000000000000000081526004016104529061089c565b60405180910390fd5b80600260003373ffffffffffffffffffffffffffffffffffffffff1673ffffffffffffffffffffffffffffffffffffffff16815260200190815260200160002060008282546104aa9190610922565b9250508190555050565b6000600260003373ffffffffffffffffffffffffffffffffffffffff1673ffffffffffffffffffffffffffffffffffffffff16815260200190815260200160002054905090565b600360009054906101000a900473ffffffffffffffffffffffffffffffffffffffff1681565b60026000540361055d576040517f3ee5aeb500000000000000000000000000000000000000000000000000000000815260040160405180910390fd5b6002600081905550565b6001600081905550565b600080fd5b6000819050919050565b61058981610576565b811461059457600080fd5b50565b6000813590506105a681610580565b92915050565b6000602082840312156105c2576105c1610571565b5b60006105d084828501610597565b91505092915050565b600073ffffffffffffffffffffffffffffffffffffffff82169050919050565b6000610604826105d9565b9050919050565b610614816105f9565b82525050565b600060208201905061062f600083018461060b565b92915050565b61063e81610576565b82525050565b60006020820190506106596000830184610635565b92915050565b6000819050919050565b600061068461067f61067a846105d9565b61065f565b6105d9565b9050919050565b600061069682610669565b9050919050565b60006106a88261068b565b9050919050565b6106b88161069d565b82525050565b60006020820190506106d360008301846106af565b92915050565b600082825260208201905092915050565b7f416d6f756e74206d7573742062652067726561746572207468616e2030000000600082015250565b6000610720601d836106d9565b915061072b826106ea565b602082019050919050565b6000602082019050818103600083015261074f81610713565b9050919050565b7f496e73756666696369656e742062616c616e6365000000000000000000000000600082015250565b600061078c6014836106d9565b915061079782610756565b602082019050919050565b600060208201905081810360008301526107bb8161077f565b9050919050565b60006040820190506107d7600083018561060b565b6107e46020830184610635565b9392505050565b60008115159050919050565b610800816107eb565b811461080b57600080fd5b50565b60008151905061081d816107f7565b92915050565b60006020828403121561083957610838610571565b5b60006108478482850161080e565b91505092915050565b7f546f6b656e207472616e73666572206661696c65640000000000000000000000600082015250565b60006108866015836106d9565b915061089182610850565b602082019050919050565b600060208201905081810360008301526108b581610879565b9050919050565b60006060820190506108d1600083018661060b565b6108de602083018561060b565b6108eb6040830184610635565b949350505050565b7f4e487b7100000000000000000000000000000000000000000000000000000000600052601160045260246000fd5b600061092d82610576565b915061093883610576565b92508282019050808211156109505761094f6108f3565b5b9291505056fea2646970667358221220b1b0cf6bfc7701c46c0678e9629086955a6d4b67d3d66f3fdeacab2f83f18e5064736f6c63430008180033",
  "linkReferences": {},
  "deployedLinkReferences": {}
}